{
  "contractName": "Crowdsale",
  "abi": [
    {
      "constant": true,
      "inputs": [
        {
          "name": "",
          "type": "uint256"
        }
      ],
      "name": "investors",
      "outputs": [
        {
          "name": "",
          "type": "address"
        }
      ],
      "payable": false,
      "stateMutability": "view",
      "type": "function"
    },
    {
      "inputs": [
        {
          "name": "rate",
          "type": "uint256"
        },
        {
          "name": "token",
          "type": "address"
        }
      ],
      "payable": false,
      "stateMutability": "nonpayable",
      "type": "constructor"
    },
    {
      "payable": true,
      "stateMutability": "payable",
      "type": "fallback"
    },
    {
      "anonymous": false,
      "inputs": [
        {
          "indexed": true,
          "name": "purchaser",
          "type": "address"
        },
        {
          "indexed": true,
          "name": "beneficiary",
          "type": "address"
        },
        {
          "indexed": false,
          "name": "value",
          "type": "uint256"
        },
        {
          "indexed": false,
          "name": "amount",
          "type": "uint256"
        }
      ],
      "name": "TokensPurchased",
      "type": "event"
    },
    {
      "anonymous": false,
      "inputs": [
        {
          "indexed": true,
          "name": "account",
          "type": "address"
        }
      ],
      "name": "WhitelistedAdded",
      "type": "event"
    },
    {
      "anonymous": false,
      "inputs": [
        {
          "indexed": true,
          "name": "account",
          "type": "address"
        },
        {
          "indexed": false,
          "name": "rate",
          "type": "uint256"
        }
      ],
      "name": "PrivilegedAdded",
      "type": "event"
    },
    {
      "anonymous": false,
      "inputs": [
        {
          "indexed": true,
          "name": "account",
          "type": "address"
        }
      ],
      "name": "PrivilegedRemoved",
      "type": "event"
    },
    {
      "anonymous": false,
      "inputs": [
        {
          "indexed": false,
          "name": "value",
          "type": "uint256"
        }
      ],
      "name": "AirdropSuccessful",
      "type": "event"
    },
    {
      "constant": true,
      "inputs": [],
      "name": "token",
      "outputs": [
        {
          "name": "",
          "type": "address"
        }
      ],
      "payable": false,
      "stateMutability": "view",
      "type": "function"
    },
    {
      "constant": true,
      "inputs": [],
      "name": "owner",
      "outputs": [
        {
          "name": "",
          "type": "address"
        }
      ],
      "payable": false,
      "stateMutability": "view",
      "type": "function"
    },
    {
      "constant": true,
      "inputs": [],
      "name": "rate",
      "outputs": [
        {
          "name": "",
          "type": "uint256"
        }
      ],
      "payable": false,
      "stateMutability": "view",
      "type": "function"
    },
    {
      "constant": true,
      "inputs": [],
      "name": "weiRaised",
      "outputs": [
        {
          "name": "",
          "type": "uint256"
        }
      ],
      "payable": false,
      "stateMutability": "view",
      "type": "function"
    },
    {
      "constant": false,
      "inputs": [
        {
          "name": "_address",
          "type": "address"
        }
      ],
      "name": "_addToWhiteList",
      "outputs": [],
      "payable": false,
      "stateMutability": "nonpayable",
      "type": "function"
    },
    {
      "constant": false,
      "inputs": [
        {
          "name": "_address",
          "type": "address"
        },
        {
          "name": "_privilegedRate",
          "type": "uint256"
        }
      ],
      "name": "_addPrivilege",
      "outputs": [],
      "payable": false,
      "stateMutability": "nonpayable",
      "type": "function"
    },
    {
      "constant": false,
      "inputs": [
        {
          "name": "_address",
          "type": "address"
        }
      ],
      "name": "_removePrivilege",
      "outputs": [],
      "payable": false,
      "stateMutability": "nonpayable",
      "type": "function"
    },
    {
      "constant": false,
      "inputs": [
        {
          "name": "_value",
          "type": "uint256"
        }
      ],
      "name": "airdrop",
      "outputs": [],
      "payable": false,
      "stateMutability": "nonpayable",
      "type": "function"
    },
    {
      "constant": false,
      "inputs": [
        {
          "name": "beneficiary",
          "type": "address"
        }
      ],
      "name": "buyTokens",
      "outputs": [],
      "payable": true,
      "stateMutability": "payable",
      "type": "function"
    }
  ],
  "bytecode": "0x608060405234801561001057600080fd5b506040516040806117e483398101806040528101908080519060200190929190805190602001909291905050506000821115156100b5576040517f08c379a00000000000000000000000000000000000000000000000000000000081526004018080602001828103825260108152602001807f72617465206973206e656761746976650000000000000000000000000000000081525060200191505060405180910390fd5b600073ffffffffffffffffffffffffffffffffffffffff168173ffffffffffffffffffffffffffffffffffffffff161415151561015a576040517f08c379a000000000000000000000000000000000000000000000000000000000815260040180806020018281038252600b8152602001807f616464726573732030783000000000000000000000000000000000000000000081525060200191505060405180910390fd5b33600460006101000a81548173ffffffffffffffffffffffffffffffffffffffff021916908373ffffffffffffffffffffffffffffffffffffffff1602179055508160058190555080600360006101000a81548173ffffffffffffffffffffffffffffffffffffffff021916908373ffffffffffffffffffffffffffffffffffffffff16021790555050506115f0806101f46000396000f3006080604052600436106100a4576000357c0100000000000000000000000000000000000000000000000000000000900463ffffffff1680632c4e722e146100af5780633feb5f2b146100da5780634042b66f14610147578063416857861461017257806385a53160146101bf5780638da5cb5b1461020257806393bdfdfe1461025957806397dc4a131461029c578063ec8ac4d8146102c9578063fc0c546a146102ff575b6100ad33610356565b005b3480156100bb57600080fd5b506100c4610411565b6040518082815260200191505060405180910390f35b3480156100e657600080fd5b506101056004803603810190808035906020019092919050505061041b565b604051808273ffffffffffffffffffffffffffffffffffffffff1673ffffffffffffffffffffffffffffffffffffffff16815260200191505060405180910390f35b34801561015357600080fd5b5061015c610459565b6040518082815260200191505060405180910390f35b34801561017e57600080fd5b506101bd600480360381019080803573ffffffffffffffffffffffffffffffffffffffff16906020019092919080359060200190929190505050610463565b005b3480156101cb57600080fd5b50610200600480360381019080803573ffffffffffffffffffffffffffffffffffffffff169060200190929190505050610727565b005b34801561020e57600080fd5b50610217610a57565b604051808273ffffffffffffffffffffffffffffffffffffffff1673ffffffffffffffffffffffffffffffffffffffff16815260200191505060405180910390f35b34801561026557600080fd5b5061029a600480360381019080803573ffffffffffffffffffffffffffffffffffffffff169060200190929190505050610a81565b005b3480156102a857600080fd5b506102c760048036038101908080359060200190929190505050610c87565b005b6102fd600480360381019080803573ffffffffffffffffffffffffffffffffffffffff169060200190929190505050610356565b005b34801561030b57600080fd5b506103146110fc565b604051808273ffffffffffffffffffffffffffffffffffffffff1673ffffffffffffffffffffffffffffffffffffffff16815260200191505060405180910390f35b6000803491506103668383611126565b6103708383611248565b90506103878260065461130990919063ffffffff16565b600681905550610397838261136e565b8273ffffffffffffffffffffffffffffffffffffffff163373ffffffffffffffffffffffffffffffffffffffff167f6faf93231a456e552dbc9961f58d9713ee4f2e69d15f1975b050ef0911053a7b8484604051808381526020018281526020019250505060405180910390a361040c61137c565b505050565b6000600554905090565b60028181548110151561042a57fe5b906000526020600020016000915054906101000a900473ffffffffffffffffffffffffffffffffffffffff1681565b6000600654905090565b600460009054906101000a900473ffffffffffffffffffffffffffffffffffffffff1673ffffffffffffffffffffffffffffffffffffffff163373ffffffffffffffffffffffffffffffffffffffff16141515610528576040517f08c379a00000000000000000000000000000000000000000000000000000000081526004018080602001828103825260098152602001807f4f776e657220307830000000000000000000000000000000000000000000000081525060200191505060405180910390fd5b816000808273ffffffffffffffffffffffffffffffffffffffff1673ffffffffffffffffffffffffffffffffffffffff16815260200190815260200160002060009054906101000a900460ff1615156105e9576040517f08c379a00000000000000000000000000000000000000000000000000000000081526004018080602001828103825260108152602001807f6e6f7420696e2077686974656c6973740000000000000000000000000000000081525060200191505060405180910390fd5b82600073ffffffffffffffffffffffffffffffffffffffff168173ffffffffffffffffffffffffffffffffffffffff161415151561068f576040517f08c379a000000000000000000000000000000000000000000000000000000000815260040180806020018281038252600b8152602001807f616464726573732030783000000000000000000000000000000000000000000081525060200191505060405180910390fd5b82600160008673ffffffffffffffffffffffffffffffffffffffff1673ffffffffffffffffffffffffffffffffffffffff168152602001908152602001600020819055508373ffffffffffffffffffffffffffffffffffffffff167f2deb78b7eca1aeefcbf791c0e89f5b8c5455576ba53804ceb956a64699c1affa846040518082815260200191505060405180910390a250505050565b600460009054906101000a900473ffffffffffffffffffffffffffffffffffffffff1673ffffffffffffffffffffffffffffffffffffffff163373ffffffffffffffffffffffffffffffffffffffff161415156107ec576040517f08c379a00000000000000000000000000000000000000000000000000000000081526004018080602001828103825260098152602001807f4f776e657220307830000000000000000000000000000000000000000000000081525060200191505060405180910390fd5b80600073ffffffffffffffffffffffffffffffffffffffff168173ffffffffffffffffffffffffffffffffffffffff1614151515610892576040517f08c379a000000000000000000000000000000000000000000000000000000000815260040180806020018281038252600b8152602001807f616464726573732030783000000000000000000000000000000000000000000081525060200191505060405180910390fd5b6000808373ffffffffffffffffffffffffffffffffffffffff1673ffffffffffffffffffffffffffffffffffffffff16815260200190815260200160002060009054906101000a900460ff16151515610953576040517f08c379a00000000000000000000000000000000000000000000000000000000081526004018080602001828103825260158152602001807f616c64726561647920696e2077686974656c697374000000000000000000000081525060200191505060405180910390fd5b60016000808473ffffffffffffffffffffffffffffffffffffffff1673ffffffffffffffffffffffffffffffffffffffff16815260200190815260200160002060006101000a81548160ff02191690831515021790555060028290806001815401808255809150509060018203906000526020600020016000909192909190916101000a81548173ffffffffffffffffffffffffffffffffffffffff021916908373ffffffffffffffffffffffffffffffffffffffff160217905550508173ffffffffffffffffffffffffffffffffffffffff167fee1504a83b6d4a361f4c1dc78ab59bfa30d6a3b6612c403e86bb01ef2984295f60405160405180910390a25050565b6000600460009054906101000a900473ffffffffffffffffffffffffffffffffffffffff16905090565b600460009054906101000a900473ffffffffffffffffffffffffffffffffffffffff1673ffffffffffffffffffffffffffffffffffffffff163373ffffffffffffffffffffffffffffffffffffffff16141515610b46576040517f08c379a00000000000000000000000000000000000000000000000000000000081526004018080602001828103825260098152602001807f4f776e657220307830000000000000000000000000000000000000000000000081525060200191505060405180910390fd5b6000600160008373ffffffffffffffffffffffffffffffffffffffff1673ffffffffffffffffffffffffffffffffffffffff1681526020019081526020016000205414151515610bfe576040517f08c379a00000000000000000000000000000000000000000000000000000000081526004018080602001828103825260148152602001807f6e6f7420612070726976696c65676564206f6e6500000000000000000000000081525060200191505060405180910390fd5b600160008273ffffffffffffffffffffffffffffffffffffffff1673ffffffffffffffffffffffffffffffffffffffff168152602001908152602001600020600090558073ffffffffffffffffffffffffffffffffffffffff167fcc1fe16f9abdf84145f80966a217d83cadc0305aa6457f486479f09d9de464c060405160405180910390a250565b6000600460009054906101000a900473ffffffffffffffffffffffffffffffffffffffff1673ffffffffffffffffffffffffffffffffffffffff163373ffffffffffffffffffffffffffffffffffffffff16141515610d4e576040517f08c379a00000000000000000000000000000000000000000000000000000000081526004018080602001828103825260098152602001807f4f776e657220307830000000000000000000000000000000000000000000000081525060200191505060405180910390fd5b6002805490508202600360009054906101000a900473ffffffffffffffffffffffffffffffffffffffff1673ffffffffffffffffffffffffffffffffffffffff166370a08231600460009054906101000a900473ffffffffffffffffffffffffffffffffffffffff166040518263ffffffff167c0100000000000000000000000000000000000000000000000000000000028152600401808273ffffffffffffffffffffffffffffffffffffffff1673ffffffffffffffffffffffffffffffffffffffff168152602001915050602060405180830381600087803b158015610e3557600080fd5b505af1158015610e49573d6000803e3d6000fd5b505050506040513d6020811015610e5f57600080fd5b810190808051906020019092919050505010151515610f0c576040517f08c379a00000000000000000000000000000000000000000000000000000000081526004018080602001828103825260228152602001807f61697264726f70206661696c2c2062616c616e636520696e737566666963696581526020017f6e7400000000000000000000000000000000000000000000000000000000000081525060400191505060405180910390fd5b600090505b6002805490508160ff1610156110c157600360009054906101000a900473ffffffffffffffffffffffffffffffffffffffff1673ffffffffffffffffffffffffffffffffffffffff166323b872dd600460009054906101000a900473ffffffffffffffffffffffffffffffffffffffff1660028460ff16815481101515610f9457fe5b9060005260206000200160009054906101000a900473ffffffffffffffffffffffffffffffffffffffff16856040518463ffffffff167c0100000000000000000000000000000000000000000000000000000000028152600401808473ffffffffffffffffffffffffffffffffffffffff1673ffffffffffffffffffffffffffffffffffffffff1681526020018373ffffffffffffffffffffffffffffffffffffffff1673ffffffffffffffffffffffffffffffffffffffff1681526020018281526020019350505050602060405180830381600087803b15801561107857600080fd5b505af115801561108c573d6000803e3d6000fd5b505050506040513d60208110156110a257600080fd5b8101908080519060200190929190505050508080600101915050610f11565b7f52bedfb213f289913a76d0bb211cc37dfa46af155da43d4c0ea5006747220ae8826040518082815260200191505060405180910390a15050565b6000600360009054906101000a900473ffffffffffffffffffffffffffffffffffffffff16905090565b600073ffffffffffffffffffffffffffffffffffffffff168273ffffffffffffffffffffffffffffffffffffffff16141515156111cb576040517f08c379a000000000000000000000000000000000000000000000000000000000815260040180806020018281038252600b8152602001807f616464726573732030783000000000000000000000000000000000000000000081525060200191505060405180910390fd5b60008114151515611244576040517f08c379a000000000000000000000000000000000000000000000000000000000815260040180806020018281038252600e8152602001807f57656920616d6f756e74203d203000000000000000000000000000000000000081525060200191505060405180910390fd5b5050565b600080600160008573ffffffffffffffffffffffffffffffffffffffff1673ffffffffffffffffffffffffffffffffffffffff16815260200190815260200160002054146112eb57600160008473ffffffffffffffffffffffffffffffffffffffff1673ffffffffffffffffffffffffffffffffffffffff168152602001908152602001600020546112e5600554846113e790919063ffffffff16565b02611301565b611300600554836113e790919063ffffffff16565b5b905092915050565b6000808284019050838110151515611364576040517f08c379a0000000000000000000000000000000000000000000000000000000008152600401808060200182810382526000815260200160200191505060405180910390fd5b8091505092915050565b6113788282611469565b5050565b600460009054906101000a900473ffffffffffffffffffffffffffffffffffffffff1673ffffffffffffffffffffffffffffffffffffffff166108fc349081150290604051600060405180830381858888f193505050501580156113e4573d6000803e3d6000fd5b50565b60008060008414156113fc5760009150611462565b828402905082848281151561140d57fe5b0414151561145e576040517f08c379a0000000000000000000000000000000000000000000000000000000008152600401808060200182810382526000815260200160200191505060405180910390fd5b8091505b5092915050565b600360009054906101000a900473ffffffffffffffffffffffffffffffffffffffff1673ffffffffffffffffffffffffffffffffffffffff166323b872dd600460009054906101000a900473ffffffffffffffffffffffffffffffffffffffff1684846040518463ffffffff167c0100000000000000000000000000000000000000000000000000000000028152600401808473ffffffffffffffffffffffffffffffffffffffff1673ffffffffffffffffffffffffffffffffffffffff1681526020018373ffffffffffffffffffffffffffffffffffffffff1673ffffffffffffffffffffffffffffffffffffffff1681526020018281526020019350505050602060405180830381600087803b15801561158457600080fd5b505af1158015611598573d6000803e3d6000fd5b505050506040513d60208110156115ae57600080fd5b81019080805190602001909291905050505050505600a165627a7a72305820712e9f3917717983367e042127882d3200be63f8b3d9bc5d64f241ab09b394b00029",
  "source": "pragma solidity ^0.4.24;\n\nimport \"./ERC20.sol\";\n\ncontract Crowdsale {\n\n    using SafeMath for uint256;\n\n    event TokensPurchased(address indexed purchaser, address indexed beneficiary, uint value, uint amount);\n    event WhitelistedAdded(address indexed account);\n    event PrivilegedAdded(address indexed account, uint rate);\n    event PrivilegedRemoved(address indexed account);\n    event AirdropSuccessful(uint value);\n\n    mapping (address => bool) private _whitelist;\n    mapping (address => uint) private _privilegeRate;\n\n    address[] public investors;\n\n    ERC20 private _token;\n\n    address private _owner;\n\n    // rate = 4\n    // decimals = 8\n    // 1 wei = 0.00000004 token\n    uint private _rate;\n    uint private _weiRaised;\n\n    constructor (uint rate, ERC20 token) public {\n        require(rate > 0, \"rate is negative\");\n        require(address(token) != address(0), \"address 0x0\");\n\n        _owner = msg.sender;\n        _rate = rate;\n        _token = token;\n    }\n\n    function () external payable {\n        buyTokens(msg.sender);\n    }\n\n    function token() public view returns (ERC20) {\n        return _token;\n    }\n\n    function owner() public view returns (address) {\n        return _owner;\n    }\n\n    function rate() public view returns (uint) {\n        return _rate;\n    }\n\n    function weiRaised() public view returns (uint) {\n        return _weiRaised;\n    }\n\n    modifier onlyOwner() {\n        require(msg.sender == _owner, \"Owner 0x0\");\n        _;\n    }\n\n    modifier isWhitelisted(address _address) {\n        require(_whitelist[_address], \"not in whitelist\");\n        _;\n    }\n\n    modifier isNotZeroAccount(address _address) {\n        require(_address != address(0), \"address 0x0\");\n        _;\n    }\n\n    function _addToWhiteList(address _address) public onlyOwner() isNotZeroAccount(_address) {\n        require(!_whitelist[_address], \"aldready in whitelist\");\n        _whitelist[_address] = true;\n        investors.push(_address);\n        emit WhitelistedAdded(_address);\n    }\n\n    function _addPrivilege(address _address, uint _privilegedRate) public onlyOwner() isWhitelisted(_address) isNotZeroAccount(_address) {\n        _privilegeRate[_address] = _privilegedRate;\n        emit PrivilegedAdded(_address, _privilegedRate);\n    }\n\n    function _removePrivilege(address _address) public onlyOwner() {\n        require(_privilegeRate[_address] != 0, \"not a privileged one\");\n        delete _privilegeRate[_address];\n        emit PrivilegedRemoved(_address);\n    }\n\n    function airdrop(uint _value) external onlyOwner() {\n        require(_token.balanceOf(_owner) >= _value * investors.length, \"airdrop fail, balance insufficient\");\n        for (uint8 i = 0; i < investors.length; i++) {\n            _token.transferFrom(_owner, investors[i], _value);\n        }\n        emit AirdropSuccessful(_value);\n    }\n\n    function buyTokens(address beneficiary) public payable {\n        uint weiAmount = msg.value;\n        _preValidatePurchase(beneficiary, weiAmount);\n        uint tokens = _getTokenAmount(beneficiary, weiAmount);\n        _weiRaised = _weiRaised.add(weiAmount);\n        _processPurchase(beneficiary, tokens);\n        emit TokensPurchased(msg.sender, beneficiary, weiAmount, tokens);\n        _forwardFunds();\n    }\n\n    function _preValidatePurchase(address beneficiary, uint weiAmount) internal pure {\n        require(beneficiary != address(0), \"address 0x0\");\n        require(weiAmount != 0, \"Wei amount = 0\");\n    }\n\n    function _deliverTokens(address beneficiary, uint tokenAmount) internal {\n        _token.transferFrom(_owner, beneficiary, tokenAmount);\n    }\n\n    function _processPurchase(address beneficiary, uint tokenAmount) internal {\n        _deliverTokens(beneficiary, tokenAmount);\n    }\n\n    function _getTokenAmount(address _address, uint weiAmount) internal view returns (uint) {\n        return (_privilegeRate[_address] == 0) ? weiAmount.mul(_rate) : (weiAmount.mul(_rate) * _privilegeRate[_address]);\n    }\n\n    function _forwardFunds() internal {\n        _owner.transfer(msg.value);\n    }\n}\n",
  "sourcePath": "/home/haze/documents/esilv/blockchain-programming/td/contracts/Crowdsale.sol",
  "compiler": {
    "name": "solc",
    "version": "0.4.25+commit.59dbf8f1.Emscripten.clang"
  },
  "schemaVersion": "2.0.2",
  "updatedAt": "2019-03-10T19:47:47.125Z"
}