{
  "contractName": "Crowdsale",
  "abi": [
    {
      "constant": true,
      "inputs": [
        {
          "name": "",
          "type": "uint256"
        }
      ],
      "name": "investors",
      "outputs": [
        {
          "name": "",
          "type": "address"
        }
      ],
      "payable": false,
      "stateMutability": "view",
      "type": "function"
    },
    {
      "inputs": [
        {
          "name": "rate",
          "type": "uint256"
        },
        {
          "name": "token",
          "type": "address"
        }
      ],
      "payable": false,
      "stateMutability": "nonpayable",
      "type": "constructor"
    },
    {
      "payable": true,
      "stateMutability": "payable",
      "type": "fallback"
    },
    {
      "anonymous": false,
      "inputs": [
        {
          "indexed": true,
          "name": "purchaser",
          "type": "address"
        },
        {
          "indexed": true,
          "name": "beneficiary",
          "type": "address"
        },
        {
          "indexed": false,
          "name": "value",
          "type": "uint256"
        },
        {
          "indexed": false,
          "name": "amount",
          "type": "uint256"
        }
      ],
      "name": "TokensPurchased",
      "type": "event"
    },
    {
      "anonymous": false,
      "inputs": [
        {
          "indexed": true,
          "name": "account",
          "type": "address"
        }
      ],
      "name": "WhitelistedAdded",
      "type": "event"
    },
    {
      "anonymous": false,
      "inputs": [
        {
          "indexed": true,
          "name": "account",
          "type": "address"
        },
        {
          "indexed": false,
          "name": "rate",
          "type": "uint256"
        }
      ],
      "name": "PrivilegedAdded",
      "type": "event"
    },
    {
      "anonymous": false,
      "inputs": [
        {
          "indexed": true,
          "name": "account",
          "type": "address"
        }
      ],
      "name": "PrivilegedRemoved",
      "type": "event"
    },
    {
      "anonymous": false,
      "inputs": [
        {
          "indexed": false,
          "name": "value",
          "type": "uint256"
        }
      ],
      "name": "AirdropSuccessful",
      "type": "event"
    },
    {
      "constant": true,
      "inputs": [],
      "name": "token",
      "outputs": [
        {
          "name": "",
          "type": "address"
        }
      ],
      "payable": false,
      "stateMutability": "view",
      "type": "function"
    },
    {
      "constant": true,
      "inputs": [],
      "name": "rate",
      "outputs": [
        {
          "name": "",
          "type": "uint256"
        }
      ],
      "payable": false,
      "stateMutability": "view",
      "type": "function"
    },
    {
      "constant": true,
      "inputs": [],
      "name": "weiRaised",
      "outputs": [
        {
          "name": "",
          "type": "uint256"
        }
      ],
      "payable": false,
      "stateMutability": "view",
      "type": "function"
    },
    {
      "constant": false,
      "inputs": [
        {
          "name": "_address",
          "type": "address"
        }
      ],
      "name": "_addToWhiteList",
      "outputs": [],
      "payable": false,
      "stateMutability": "nonpayable",
      "type": "function"
    },
    {
      "constant": false,
      "inputs": [
        {
          "name": "_address",
          "type": "address"
        },
        {
          "name": "_privilegedRate",
          "type": "uint256"
        }
      ],
      "name": "_addPrivilege",
      "outputs": [],
      "payable": false,
      "stateMutability": "nonpayable",
      "type": "function"
    },
    {
      "constant": false,
      "inputs": [
        {
          "name": "_address",
          "type": "address"
        }
      ],
      "name": "_removePrivilege",
      "outputs": [],
      "payable": false,
      "stateMutability": "nonpayable",
      "type": "function"
    },
    {
      "constant": false,
      "inputs": [
        {
          "name": "_value",
          "type": "uint256"
        }
      ],
      "name": "airdrop",
      "outputs": [],
      "payable": false,
      "stateMutability": "nonpayable",
      "type": "function"
    },
    {
      "constant": false,
      "inputs": [
        {
          "name": "beneficiary",
          "type": "address"
        }
      ],
      "name": "buyTokens",
      "outputs": [],
      "payable": true,
      "stateMutability": "payable",
      "type": "function"
    }
  ],
  "bytecode": "0x608060405234801561001057600080fd5b506040516040806117f3833981018060405281019080805190602001909291908051906020019092919050505060016000819055506000821115156100bd576040517f08c379a00000000000000000000000000000000000000000000000000000000081526004018080602001828103825260108152602001807f72617465206973206e656761746976650000000000000000000000000000000081525060200191505060405180910390fd5b600073ffffffffffffffffffffffffffffffffffffffff168173ffffffffffffffffffffffffffffffffffffffff1614151515610162576040517f08c379a000000000000000000000000000000000000000000000000000000000815260040180806020018281038252600b8152602001807f616464726573732030783000000000000000000000000000000000000000000081525060200191505060405180910390fd5b33600560006101000a81548173ffffffffffffffffffffffffffffffffffffffff021916908373ffffffffffffffffffffffffffffffffffffffff1602179055508160068190555080600460006101000a81548173ffffffffffffffffffffffffffffffffffffffff021916908373ffffffffffffffffffffffffffffffffffffffff16021790555050506115f7806101fc6000396000f300608060405260043610610099576000357c0100000000000000000000000000000000000000000000000000000000900463ffffffff1680632c4e722e146100a45780633feb5f2b146100cf5780634042b66f1461013c578063416857861461016757806385a53160146101b457806393bdfdfe146101f757806397dc4a131461023a578063ec8ac4d814610267578063fc0c546a1461029d575b6100a2336102f4565b005b3480156100b057600080fd5b506100b9610440565b6040518082815260200191505060405180910390f35b3480156100db57600080fd5b506100fa6004803603810190808035906020019092919050505061044a565b604051808273ffffffffffffffffffffffffffffffffffffffff1673ffffffffffffffffffffffffffffffffffffffff16815260200191505060405180910390f35b34801561014857600080fd5b50610151610488565b6040518082815260200191505060405180910390f35b34801561017357600080fd5b506101b2600480360381019080803573ffffffffffffffffffffffffffffffffffffffff16906020019092919080359060200190929190505050610492565b005b3480156101c057600080fd5b506101f5600480360381019080803573ffffffffffffffffffffffffffffffffffffffff169060200190929190505050610757565b005b34801561020357600080fd5b50610238600480360381019080803573ffffffffffffffffffffffffffffffffffffffff169060200190929190505050610a88565b005b34801561024657600080fd5b5061026560048036038101908080359060200190929190505050610c8e565b005b61029b600480360381019080803573ffffffffffffffffffffffffffffffffffffffff1690602001909291905050506102f4565b005b3480156102a957600080fd5b506102b2611103565b604051808273ffffffffffffffffffffffffffffffffffffffff1673ffffffffffffffffffffffffffffffffffffffff16815260200191505060405180910390f35b600080600060016000808282540192505081905550600054905034925061031b848461112d565b610325848461124f565b915061033c8360075461131090919063ffffffff16565b60078190555061034c8483611375565b8373ffffffffffffffffffffffffffffffffffffffff163373ffffffffffffffffffffffffffffffffffffffff167f6faf93231a456e552dbc9961f58d9713ee4f2e69d15f1975b050ef0911053a7b8585604051808381526020018281526020019250505060405180910390a36103c1611383565b6000548114151561043a576040517f08c379a00000000000000000000000000000000000000000000000000000000081526004018080602001828103825260098152602001807f5265656e7472616365000000000000000000000000000000000000000000000081525060200191505060405180910390fd5b50505050565b6000600654905090565b60038181548110151561045957fe5b906000526020600020016000915054906101000a900473ffffffffffffffffffffffffffffffffffffffff1681565b6000600754905090565b600560009054906101000a900473ffffffffffffffffffffffffffffffffffffffff1673ffffffffffffffffffffffffffffffffffffffff163373ffffffffffffffffffffffffffffffffffffffff16141515610557576040517f08c379a00000000000000000000000000000000000000000000000000000000081526004018080602001828103825260098152602001807f4f776e657220307830000000000000000000000000000000000000000000000081525060200191505060405180910390fd5b81600160008273ffffffffffffffffffffffffffffffffffffffff1673ffffffffffffffffffffffffffffffffffffffff16815260200190815260200160002060009054906101000a900460ff161515610619576040517f08c379a00000000000000000000000000000000000000000000000000000000081526004018080602001828103825260108152602001807f6e6f7420696e2077686974656c6973740000000000000000000000000000000081525060200191505060405180910390fd5b82600073ffffffffffffffffffffffffffffffffffffffff168173ffffffffffffffffffffffffffffffffffffffff16141515156106bf576040517f08c379a000000000000000000000000000000000000000000000000000000000815260040180806020018281038252600b8152602001807f616464726573732030783000000000000000000000000000000000000000000081525060200191505060405180910390fd5b82600260008673ffffffffffffffffffffffffffffffffffffffff1673ffffffffffffffffffffffffffffffffffffffff168152602001908152602001600020819055508373ffffffffffffffffffffffffffffffffffffffff167f2deb78b7eca1aeefcbf791c0e89f5b8c5455576ba53804ceb956a64699c1affa846040518082815260200191505060405180910390a250505050565b600560009054906101000a900473ffffffffffffffffffffffffffffffffffffffff1673ffffffffffffffffffffffffffffffffffffffff163373ffffffffffffffffffffffffffffffffffffffff1614151561081c576040517f08c379a00000000000000000000000000000000000000000000000000000000081526004018080602001828103825260098152602001807f4f776e657220307830000000000000000000000000000000000000000000000081525060200191505060405180910390fd5b80600073ffffffffffffffffffffffffffffffffffffffff168173ffffffffffffffffffffffffffffffffffffffff16141515156108c2576040517f08c379a000000000000000000000000000000000000000000000000000000000815260040180806020018281038252600b8152602001807f616464726573732030783000000000000000000000000000000000000000000081525060200191505060405180910390fd5b600160008373ffffffffffffffffffffffffffffffffffffffff1673ffffffffffffffffffffffffffffffffffffffff16815260200190815260200160002060009054906101000a900460ff16151515610984576040517f08c379a00000000000000000000000000000000000000000000000000000000081526004018080602001828103825260158152602001807f616c64726561647920696e2077686974656c697374000000000000000000000081525060200191505060405180910390fd5b60018060008473ffffffffffffffffffffffffffffffffffffffff1673ffffffffffffffffffffffffffffffffffffffff16815260200190815260200160002060006101000a81548160ff02191690831515021790555060038290806001815401808255809150509060018203906000526020600020016000909192909190916101000a81548173ffffffffffffffffffffffffffffffffffffffff021916908373ffffffffffffffffffffffffffffffffffffffff160217905550508173ffffffffffffffffffffffffffffffffffffffff167fee1504a83b6d4a361f4c1dc78ab59bfa30d6a3b6612c403e86bb01ef2984295f60405160405180910390a25050565b600560009054906101000a900473ffffffffffffffffffffffffffffffffffffffff1673ffffffffffffffffffffffffffffffffffffffff163373ffffffffffffffffffffffffffffffffffffffff16141515610b4d576040517f08c379a00000000000000000000000000000000000000000000000000000000081526004018080602001828103825260098152602001807f4f776e657220307830000000000000000000000000000000000000000000000081525060200191505060405180910390fd5b6000600260008373ffffffffffffffffffffffffffffffffffffffff1673ffffffffffffffffffffffffffffffffffffffff1681526020019081526020016000205414151515610c05576040517f08c379a00000000000000000000000000000000000000000000000000000000081526004018080602001828103825260148152602001807f6e6f7420612070726976696c65676564206f6e6500000000000000000000000081525060200191505060405180910390fd5b600260008273ffffffffffffffffffffffffffffffffffffffff1673ffffffffffffffffffffffffffffffffffffffff168152602001908152602001600020600090558073ffffffffffffffffffffffffffffffffffffffff167fcc1fe16f9abdf84145f80966a217d83cadc0305aa6457f486479f09d9de464c060405160405180910390a250565b6000600560009054906101000a900473ffffffffffffffffffffffffffffffffffffffff1673ffffffffffffffffffffffffffffffffffffffff163373ffffffffffffffffffffffffffffffffffffffff16141515610d55576040517f08c379a00000000000000000000000000000000000000000000000000000000081526004018080602001828103825260098152602001807f4f776e657220307830000000000000000000000000000000000000000000000081525060200191505060405180910390fd5b6003805490508202600460009054906101000a900473ffffffffffffffffffffffffffffffffffffffff1673ffffffffffffffffffffffffffffffffffffffff166370a08231600560009054906101000a900473ffffffffffffffffffffffffffffffffffffffff166040518263ffffffff167c0100000000000000000000000000000000000000000000000000000000028152600401808273ffffffffffffffffffffffffffffffffffffffff1673ffffffffffffffffffffffffffffffffffffffff168152602001915050602060405180830381600087803b158015610e3c57600080fd5b505af1158015610e50573d6000803e3d6000fd5b505050506040513d6020811015610e6657600080fd5b810190808051906020019092919050505010151515610f13576040517f08c379a00000000000000000000000000000000000000000000000000000000081526004018080602001828103825260228152602001807f61697264726f70206661696c2c2062616c616e636520696e737566666963696581526020017f6e7400000000000000000000000000000000000000000000000000000000000081525060400191505060405180910390fd5b600090505b6003805490508160ff1610156110c857600460009054906101000a900473ffffffffffffffffffffffffffffffffffffffff1673ffffffffffffffffffffffffffffffffffffffff166323b872dd600560009054906101000a900473ffffffffffffffffffffffffffffffffffffffff1660038460ff16815481101515610f9b57fe5b9060005260206000200160009054906101000a900473ffffffffffffffffffffffffffffffffffffffff16856040518463ffffffff167c0100000000000000000000000000000000000000000000000000000000028152600401808473ffffffffffffffffffffffffffffffffffffffff1673ffffffffffffffffffffffffffffffffffffffff1681526020018373ffffffffffffffffffffffffffffffffffffffff1673ffffffffffffffffffffffffffffffffffffffff1681526020018281526020019350505050602060405180830381600087803b15801561107f57600080fd5b505af1158015611093573d6000803e3d6000fd5b505050506040513d60208110156110a957600080fd5b8101908080519060200190929190505050508080600101915050610f18565b7f52bedfb213f289913a76d0bb211cc37dfa46af155da43d4c0ea5006747220ae8826040518082815260200191505060405180910390a15050565b6000600460009054906101000a900473ffffffffffffffffffffffffffffffffffffffff16905090565b600073ffffffffffffffffffffffffffffffffffffffff168273ffffffffffffffffffffffffffffffffffffffff16141515156111d2576040517f08c379a000000000000000000000000000000000000000000000000000000000815260040180806020018281038252600b8152602001807f616464726573732030783000000000000000000000000000000000000000000081525060200191505060405180910390fd5b6000811415151561124b576040517f08c379a000000000000000000000000000000000000000000000000000000000815260040180806020018281038252600e8152602001807f57656920616d6f756e74203d203000000000000000000000000000000000000081525060200191505060405180910390fd5b5050565b600080600260008573ffffffffffffffffffffffffffffffffffffffff1673ffffffffffffffffffffffffffffffffffffffff16815260200190815260200160002054146112f257600260008473ffffffffffffffffffffffffffffffffffffffff1673ffffffffffffffffffffffffffffffffffffffff168152602001908152602001600020546112ec600654846113ee90919063ffffffff16565b02611308565b611307600654836113ee90919063ffffffff16565b5b905092915050565b600080828401905083811015151561136b576040517f08c379a0000000000000000000000000000000000000000000000000000000008152600401808060200182810382526000815260200160200191505060405180910390fd5b8091505092915050565b61137f8282611470565b5050565b600560009054906101000a900473ffffffffffffffffffffffffffffffffffffffff1673ffffffffffffffffffffffffffffffffffffffff166108fc349081150290604051600060405180830381858888f193505050501580156113eb573d6000803e3d6000fd5b50565b60008060008414156114035760009150611469565b828402905082848281151561141457fe5b04141515611465576040517f08c379a0000000000000000000000000000000000000000000000000000000008152600401808060200182810382526000815260200160200191505060405180910390fd5b8091505b5092915050565b600460009054906101000a900473ffffffffffffffffffffffffffffffffffffffff1673ffffffffffffffffffffffffffffffffffffffff166323b872dd600560009054906101000a900473ffffffffffffffffffffffffffffffffffffffff1684846040518463ffffffff167c0100000000000000000000000000000000000000000000000000000000028152600401808473ffffffffffffffffffffffffffffffffffffffff1673ffffffffffffffffffffffffffffffffffffffff1681526020018373ffffffffffffffffffffffffffffffffffffffff1673ffffffffffffffffffffffffffffffffffffffff1681526020018281526020019350505050602060405180830381600087803b15801561158b57600080fd5b505af115801561159f573d6000803e3d6000fd5b505050506040513d60208110156115b557600080fd5b81019080805190602001909291905050505050505600a165627a7a723058201cd425f6eb375eed0d15f0a473f0cc63980029d852eb02e4968a6b322eb37a1e0029",
  "source": "pragma solidity ^0.4.24;\n\nimport \"./ERC20.sol\";\nimport \"./ReentrancyGuard.sol\";\n\ncontract Crowdsale is ReentrancyGuard {\n\n    using SafeMath for uint256;\n\n    event TokensPurchased(address indexed purchaser, address indexed beneficiary, uint value, uint amount);\n    event WhitelistedAdded(address indexed account);\n    event PrivilegedAdded(address indexed account, uint rate);\n    event PrivilegedRemoved(address indexed account);\n    event AirdropSuccessful(uint value);\n\n    mapping (address => bool) private _whitelist;\n    mapping (address => uint) private _privilegeRate;\n\n    address[] public investors;\n\n    ERC20 private _token;\n\n    address private _owner;\n\n    // rate = 4\n    // decimals = 8\n    // 1 wei = 0.00000004 token\n    uint private _rate;\n    uint private _weiRaised;\n\n\n    constructor (uint rate, ERC20 token) public {\n        require(rate > 0, \"rate is negative\");\n        require(address(token) != address(0), \"address 0x0\");\n\n        _owner = msg.sender;\n        _rate = rate;\n        _token = token;\n    }\n\n    function () external payable {\n        buyTokens(msg.sender);\n    }\n\n    function token() public view returns (ERC20) {\n        return _token;\n    }\n\n    function rate() public view returns (uint) {\n        return _rate;\n    }\n\n    function weiRaised() public view returns (uint) {\n        return _weiRaised;\n    }\n\n    modifier onlyOwner() {\n        require(msg.sender == _owner, \"Owner 0x0\");\n        _;\n    }\n\n    modifier isWhitelisted(address _address) {\n        require(_whitelist[_address], \"not in whitelist\");\n        _;\n    }\n\n    modifier isNotZeroAccount(address _address) {\n        require(_address != address(0), \"address 0x0\");\n        _;\n    }\n\n    function _addToWhiteList(address _address) public onlyOwner() isNotZeroAccount(_address) {\n        require(!_whitelist[_address], \"aldready in whitelist\");\n        _whitelist[_address] = true;\n        investors.push(_address);\n        emit WhitelistedAdded(_address);\n    }\n\n    function _addPrivilege(address _address, uint _privilegedRate) public onlyOwner() isWhitelisted(_address) isNotZeroAccount(_address) {\n        _privilegeRate[_address] = _privilegedRate;\n        emit PrivilegedAdded(_address, _privilegedRate);\n    }\n\n    function _removePrivilege(address _address) public onlyOwner() {\n        require(_privilegeRate[_address] != 0, \"not a privileged one\");\n        delete _privilegeRate[_address];\n        emit PrivilegedRemoved(_address);\n    }\n\n    function airdrop(uint _value) external onlyOwner() {\n        require(_token.balanceOf(_owner) >= _value * investors.length, \"airdrop fail, balance insufficient\");\n        for (uint8 i = 0; i < investors.length; i++) {\n            _token.transferFrom(_owner, investors[i], _value);\n        }\n        emit AirdropSuccessful(_value);\n    }\n\n    function buyTokens(address beneficiary) public nonReentrant payable {\n        uint weiAmount = msg.value;\n        _preValidatePurchase(beneficiary, weiAmount);\n        uint tokens = _getTokenAmount(beneficiary, weiAmount);\n        _weiRaised = _weiRaised.add(weiAmount);\n        _processPurchase(beneficiary, tokens);\n        emit TokensPurchased(msg.sender, beneficiary, weiAmount, tokens);\n        _forwardFunds();\n    }\n\n    function _preValidatePurchase(address beneficiary, uint weiAmount) internal pure {\n        require(beneficiary != address(0), \"address 0x0\");\n        require(weiAmount != 0, \"Wei amount = 0\");\n    }\n\n    function _deliverTokens(address beneficiary, uint tokenAmount) internal {\n        _token.transferFrom(_owner, beneficiary, tokenAmount);\n    }\n\n    function _processPurchase(address beneficiary, uint tokenAmount) internal {\n        _deliverTokens(beneficiary, tokenAmount);\n    }\n\n    function _getTokenAmount(address _address, uint weiAmount) internal view returns (uint) {\n        return (_privilegeRate[_address] == 0) ? weiAmount.mul(_rate) : (weiAmount.mul(_rate) * _privilegeRate[_address]);\n    }\n\n    function _forwardFunds() internal {\n        _owner.transfer(msg.value);\n    }\n}\n",
  "sourcePath": "/home/haze/documents/esilv/blockchain-programming/td/contracts/Crowdsale.sol",
  "compiler": {
    "name": "solc",
    "version": "0.4.25+commit.59dbf8f1.Emscripten.clang"
  },
  "schemaVersion": "2.0.2",
  "updatedAt": "2019-03-10T15:46:45.706Z"
}