{
  "contractName": "Crowdsale",
  "abi": [
    {
      "constant": true,
      "inputs": [
        {
          "name": "",
          "type": "uint256"
        }
      ],
      "name": "investors",
      "outputs": [
        {
          "name": "",
          "type": "address"
        }
      ],
      "payable": false,
      "stateMutability": "view",
      "type": "function"
    },
    {
      "constant": false,
      "inputs": [],
      "name": "renounceOwnership",
      "outputs": [],
      "payable": false,
      "stateMutability": "nonpayable",
      "type": "function"
    },
    {
      "constant": true,
      "inputs": [],
      "name": "owner",
      "outputs": [
        {
          "name": "",
          "type": "address"
        }
      ],
      "payable": false,
      "stateMutability": "view",
      "type": "function"
    },
    {
      "constant": true,
      "inputs": [],
      "name": "isOwner",
      "outputs": [
        {
          "name": "",
          "type": "bool"
        }
      ],
      "payable": false,
      "stateMutability": "view",
      "type": "function"
    },
    {
      "constant": false,
      "inputs": [
        {
          "name": "newOwner",
          "type": "address"
        }
      ],
      "name": "transferOwnership",
      "outputs": [],
      "payable": false,
      "stateMutability": "nonpayable",
      "type": "function"
    },
    {
      "inputs": [
        {
          "name": "rate",
          "type": "uint256"
        },
        {
          "name": "wallet",
          "type": "address"
        },
        {
          "name": "token",
          "type": "address"
        }
      ],
      "payable": false,
      "stateMutability": "nonpayable",
      "type": "constructor"
    },
    {
      "payable": true,
      "stateMutability": "payable",
      "type": "fallback"
    },
    {
      "anonymous": false,
      "inputs": [
        {
          "indexed": true,
          "name": "purchaser",
          "type": "address"
        },
        {
          "indexed": true,
          "name": "beneficiary",
          "type": "address"
        },
        {
          "indexed": false,
          "name": "value",
          "type": "uint256"
        },
        {
          "indexed": false,
          "name": "amount",
          "type": "uint256"
        }
      ],
      "name": "TokensPurchased",
      "type": "event"
    },
    {
      "anonymous": false,
      "inputs": [
        {
          "indexed": true,
          "name": "account",
          "type": "address"
        }
      ],
      "name": "WhitelistedAdded",
      "type": "event"
    },
    {
      "anonymous": false,
      "inputs": [
        {
          "indexed": true,
          "name": "account",
          "type": "address"
        },
        {
          "indexed": false,
          "name": "rate",
          "type": "uint256"
        }
      ],
      "name": "PrivilegedAdded",
      "type": "event"
    },
    {
      "anonymous": false,
      "inputs": [
        {
          "indexed": true,
          "name": "account",
          "type": "address"
        }
      ],
      "name": "PrivilegedRemoved",
      "type": "event"
    },
    {
      "anonymous": false,
      "inputs": [
        {
          "indexed": false,
          "name": "value",
          "type": "uint256"
        }
      ],
      "name": "AirdropSuccessful",
      "type": "event"
    },
    {
      "anonymous": false,
      "inputs": [
        {
          "indexed": true,
          "name": "previousOwner",
          "type": "address"
        },
        {
          "indexed": true,
          "name": "newOwner",
          "type": "address"
        }
      ],
      "name": "OwnershipTransferred",
      "type": "event"
    },
    {
      "constant": true,
      "inputs": [],
      "name": "token",
      "outputs": [
        {
          "name": "",
          "type": "address"
        }
      ],
      "payable": false,
      "stateMutability": "view",
      "type": "function"
    },
    {
      "constant": true,
      "inputs": [],
      "name": "rate",
      "outputs": [
        {
          "name": "",
          "type": "uint256"
        }
      ],
      "payable": false,
      "stateMutability": "view",
      "type": "function"
    },
    {
      "constant": true,
      "inputs": [],
      "name": "weiRaised",
      "outputs": [
        {
          "name": "",
          "type": "uint256"
        }
      ],
      "payable": false,
      "stateMutability": "view",
      "type": "function"
    },
    {
      "constant": false,
      "inputs": [
        {
          "name": "_address",
          "type": "address"
        }
      ],
      "name": "_addToWhiteList",
      "outputs": [],
      "payable": false,
      "stateMutability": "nonpayable",
      "type": "function"
    },
    {
      "constant": false,
      "inputs": [
        {
          "name": "_address",
          "type": "address"
        },
        {
          "name": "_privilegedRate",
          "type": "uint256"
        }
      ],
      "name": "_addPrivilege",
      "outputs": [],
      "payable": false,
      "stateMutability": "nonpayable",
      "type": "function"
    },
    {
      "constant": false,
      "inputs": [
        {
          "name": "_address",
          "type": "address"
        }
      ],
      "name": "_removePrivilege",
      "outputs": [],
      "payable": false,
      "stateMutability": "nonpayable",
      "type": "function"
    },
    {
      "constant": false,
      "inputs": [
        {
          "name": "_value",
          "type": "uint256"
        }
      ],
      "name": "airdrop",
      "outputs": [],
      "payable": false,
      "stateMutability": "nonpayable",
      "type": "function"
    },
    {
      "constant": false,
      "inputs": [
        {
          "name": "beneficiary",
          "type": "address"
        }
      ],
      "name": "buyTokens",
      "outputs": [],
      "payable": true,
      "stateMutability": "payable",
      "type": "function"
    }
  ],
  "bytecode": "0x608060405234801561001057600080fd5b50604051606080611ba2833981018060405281019080805190602001909291908051906020019092919080519060200190929190505050600160008190555033600160006101000a81548173ffffffffffffffffffffffffffffffffffffffff021916908373ffffffffffffffffffffffffffffffffffffffff160217905550600160009054906101000a900473ffffffffffffffffffffffffffffffffffffffff1673ffffffffffffffffffffffffffffffffffffffff16600073ffffffffffffffffffffffffffffffffffffffff167f8be0079c531659141344cd1fd0a4f28419497f9722a3daafe3b4186f6b6457e060405160405180910390a3600083111515610185576040517f08c379a00000000000000000000000000000000000000000000000000000000081526004018080602001828103825260108152602001807f72617465206973206e656761746976650000000000000000000000000000000081525060200191505060405180910390fd5b600073ffffffffffffffffffffffffffffffffffffffff168273ffffffffffffffffffffffffffffffffffffffff161415151561022a576040517f08c379a000000000000000000000000000000000000000000000000000000000815260040180806020018281038252600a8152602001807f77616c6c6574203078300000000000000000000000000000000000000000000081525060200191505060405180910390fd5b600073ffffffffffffffffffffffffffffffffffffffff168173ffffffffffffffffffffffffffffffffffffffff16141515156102cf576040517f08c379a000000000000000000000000000000000000000000000000000000000815260040180806020018281038252600b8152602001807f616464726573732030783000000000000000000000000000000000000000000081525060200191505060405180910390fd5b8260078190555081600660006101000a81548173ffffffffffffffffffffffffffffffffffffffff021916908373ffffffffffffffffffffffffffffffffffffffff16021790555080600560006101000a81548173ffffffffffffffffffffffffffffffffffffffff021916908373ffffffffffffffffffffffffffffffffffffffff1602179055505050506118388061036a6000396000f3006080604052600436106100c5576000357c0100000000000000000000000000000000000000000000000000000000900463ffffffff1680632c4e722e146100d05780633feb5f2b146100fb5780634042b66f146101685780634168578614610193578063715018a6146101e057806385a53160146101f75780638da5cb5b1461023a5780638f32d59b1461029157806393bdfdfe146102c057806397dc4a1314610303578063ec8ac4d814610330578063f2fde38b14610366578063fc0c546a146103a9575b6100ce33610400565b005b3480156100dc57600080fd5b506100e561054c565b6040518082815260200191505060405180910390f35b34801561010757600080fd5b5061012660048036038101908080359060200190929190505050610556565b604051808273ffffffffffffffffffffffffffffffffffffffff1673ffffffffffffffffffffffffffffffffffffffff16815260200191505060405180910390f35b34801561017457600080fd5b5061017d610594565b6040518082815260200191505060405180910390f35b34801561019f57600080fd5b506101de600480360381019080803573ffffffffffffffffffffffffffffffffffffffff1690602001909291908035906020019092919050505061059e565b005b3480156101ec57600080fd5b506101f56107f5565b005b34801561020357600080fd5b50610238600480360381019080803573ffffffffffffffffffffffffffffffffffffffff16906020019092919050505061090d565b005b34801561024657600080fd5b5061024f610bd1565b604051808273ffffffffffffffffffffffffffffffffffffffff1673ffffffffffffffffffffffffffffffffffffffff16815260200191505060405180910390f35b34801561029d57600080fd5b506102a6610bfb565b604051808215151515815260200191505060405180910390f35b3480156102cc57600080fd5b50610301600480360381019080803573ffffffffffffffffffffffffffffffffffffffff169060200190929190505050610c53565b005b34801561030f57600080fd5b5061032e60048036038101908080359060200190929190505050610deb565b005b610364600480360381019080803573ffffffffffffffffffffffffffffffffffffffff169060200190929190505050610400565b005b34801561037257600080fd5b506103a7600480360381019080803573ffffffffffffffffffffffffffffffffffffffff1690602001909291905050506111bc565b005b3480156103b557600080fd5b506103be61121f565b604051808273ffffffffffffffffffffffffffffffffffffffff1673ffffffffffffffffffffffffffffffffffffffff16815260200191505060405180910390f35b60008060006001600080828254019250508190555060005490503492506104278484611249565b610431848461136b565b91506104488360085461142c90919063ffffffff16565b6008819055506104588483611491565b8373ffffffffffffffffffffffffffffffffffffffff163373ffffffffffffffffffffffffffffffffffffffff167f6faf93231a456e552dbc9961f58d9713ee4f2e69d15f1975b050ef0911053a7b8585604051808381526020018281526020019250505060405180910390a36104cd61149f565b60005481141515610546576040517f08c379a00000000000000000000000000000000000000000000000000000000081526004018080602001828103825260098152602001807f5265656e7472616365000000000000000000000000000000000000000000000081525060200191505060405180910390fd5b50505050565b6000600754905090565b60048181548110151561056557fe5b906000526020600020016000915054906101000a900473ffffffffffffffffffffffffffffffffffffffff1681565b6000600854905090565b6105a6610bfb565b15156105f5576040517f08c379a0000000000000000000000000000000000000000000000000000000008152600401808060200182810382526000815260200160200191505060405180910390fd5b81600260008273ffffffffffffffffffffffffffffffffffffffff1673ffffffffffffffffffffffffffffffffffffffff16815260200190815260200160002060009054906101000a900460ff1615156106b7576040517f08c379a00000000000000000000000000000000000000000000000000000000081526004018080602001828103825260108152602001807f6e6f7420696e2077686974656c6973740000000000000000000000000000000081525060200191505060405180910390fd5b82600073ffffffffffffffffffffffffffffffffffffffff168173ffffffffffffffffffffffffffffffffffffffff161415151561075d576040517f08c379a000000000000000000000000000000000000000000000000000000000815260040180806020018281038252600b8152602001807f616464726573732030783000000000000000000000000000000000000000000081525060200191505060405180910390fd5b82600360008673ffffffffffffffffffffffffffffffffffffffff1673ffffffffffffffffffffffffffffffffffffffff168152602001908152602001600020819055508373ffffffffffffffffffffffffffffffffffffffff167f2deb78b7eca1aeefcbf791c0e89f5b8c5455576ba53804ceb956a64699c1affa846040518082815260200191505060405180910390a250505050565b6107fd610bfb565b151561084c576040517f08c379a0000000000000000000000000000000000000000000000000000000008152600401808060200182810382526000815260200160200191505060405180910390fd5b600073ffffffffffffffffffffffffffffffffffffffff16600160009054906101000a900473ffffffffffffffffffffffffffffffffffffffff1673ffffffffffffffffffffffffffffffffffffffff167f8be0079c531659141344cd1fd0a4f28419497f9722a3daafe3b4186f6b6457e060405160405180910390a36000600160006101000a81548173ffffffffffffffffffffffffffffffffffffffff021916908373ffffffffffffffffffffffffffffffffffffffff160217905550565b610915610bfb565b1515610964576040517f08c379a0000000000000000000000000000000000000000000000000000000008152600401808060200182810382526000815260200160200191505060405180910390fd5b80600073ffffffffffffffffffffffffffffffffffffffff168173ffffffffffffffffffffffffffffffffffffffff1614151515610a0a576040517f08c379a000000000000000000000000000000000000000000000000000000000815260040180806020018281038252600b8152602001807f616464726573732030783000000000000000000000000000000000000000000081525060200191505060405180910390fd5b600260008373ffffffffffffffffffffffffffffffffffffffff1673ffffffffffffffffffffffffffffffffffffffff16815260200190815260200160002060009054906101000a900460ff16151515610acc576040517f08c379a00000000000000000000000000000000000000000000000000000000081526004018080602001828103825260158152602001807f616c64726561647920696e2077686974656c697374000000000000000000000081525060200191505060405180910390fd5b6001600260008473ffffffffffffffffffffffffffffffffffffffff1673ffffffffffffffffffffffffffffffffffffffff16815260200190815260200160002060006101000a81548160ff02191690831515021790555060048290806001815401808255809150509060018203906000526020600020016000909192909190916101000a81548173ffffffffffffffffffffffffffffffffffffffff021916908373ffffffffffffffffffffffffffffffffffffffff160217905550508173ffffffffffffffffffffffffffffffffffffffff167fee1504a83b6d4a361f4c1dc78ab59bfa30d6a3b6612c403e86bb01ef2984295f60405160405180910390a25050565b6000600160009054906101000a900473ffffffffffffffffffffffffffffffffffffffff16905090565b6000600160009054906101000a900473ffffffffffffffffffffffffffffffffffffffff1673ffffffffffffffffffffffffffffffffffffffff163373ffffffffffffffffffffffffffffffffffffffff1614905090565b610c5b610bfb565b1515610caa576040517f08c379a0000000000000000000000000000000000000000000000000000000008152600401808060200182810382526000815260200160200191505060405180910390fd5b6000600360008373ffffffffffffffffffffffffffffffffffffffff1673ffffffffffffffffffffffffffffffffffffffff1681526020019081526020016000205414151515610d62576040517f08c379a00000000000000000000000000000000000000000000000000000000081526004018080602001828103825260148152602001807f6e6f7420612070726976696c65676564206f6e6500000000000000000000000081525060200191505060405180910390fd5b600360008273ffffffffffffffffffffffffffffffffffffffff1673ffffffffffffffffffffffffffffffffffffffff168152602001908152602001600020600090558073ffffffffffffffffffffffffffffffffffffffff167fcc1fe16f9abdf84145f80966a217d83cadc0305aa6457f486479f09d9de464c060405160405180910390a250565b6000610df5610bfb565b1515610e44576040517f08c379a0000000000000000000000000000000000000000000000000000000008152600401808060200182810382526000815260200160200191505060405180910390fd5b6004805490508202600560009054906101000a900473ffffffffffffffffffffffffffffffffffffffff1673ffffffffffffffffffffffffffffffffffffffff166370a08231610e92610bd1565b6040518263ffffffff167c0100000000000000000000000000000000000000000000000000000000028152600401808273ffffffffffffffffffffffffffffffffffffffff1673ffffffffffffffffffffffffffffffffffffffff168152602001915050602060405180830381600087803b158015610f1057600080fd5b505af1158015610f24573d6000803e3d6000fd5b505050506040513d6020811015610f3a57600080fd5b810190808051906020019092919050505010151515610fe7576040517f08c379a00000000000000000000000000000000000000000000000000000000081526004018080602001828103825260228152602001807f61697264726f70206661696c2c2062616c616e636520696e737566666963696581526020017f6e7400000000000000000000000000000000000000000000000000000000000081525060400191505060405180910390fd5b600090505b6004805490508160ff16101561118157600560009054906101000a900473ffffffffffffffffffffffffffffffffffffffff1673ffffffffffffffffffffffffffffffffffffffff166323b872dd611042610bd1565b60048460ff1681548110151561105457fe5b9060005260206000200160009054906101000a900473ffffffffffffffffffffffffffffffffffffffff16856040518463ffffffff167c0100000000000000000000000000000000000000000000000000000000028152600401808473ffffffffffffffffffffffffffffffffffffffff1673ffffffffffffffffffffffffffffffffffffffff1681526020018373ffffffffffffffffffffffffffffffffffffffff1673ffffffffffffffffffffffffffffffffffffffff1681526020018281526020019350505050602060405180830381600087803b15801561113857600080fd5b505af115801561114c573d6000803e3d6000fd5b505050506040513d602081101561116257600080fd5b8101908080519060200190929190505050508080600101915050610fec565b7f52bedfb213f289913a76d0bb211cc37dfa46af155da43d4c0ea5006747220ae8826040518082815260200191505060405180910390a15050565b6111c4610bfb565b1515611213576040517f08c379a0000000000000000000000000000000000000000000000000000000008152600401808060200182810382526000815260200160200191505060405180910390fd5b61121c8161150a565b50565b6000600560009054906101000a900473ffffffffffffffffffffffffffffffffffffffff16905090565b600073ffffffffffffffffffffffffffffffffffffffff168273ffffffffffffffffffffffffffffffffffffffff16141515156112ee576040517f08c379a000000000000000000000000000000000000000000000000000000000815260040180806020018281038252600b8152602001807f616464726573732030783000000000000000000000000000000000000000000081525060200191505060405180910390fd5b60008114151515611367576040517f08c379a000000000000000000000000000000000000000000000000000000000815260040180806020018281038252600e8152602001807f57656920616d6f756e74203d203000000000000000000000000000000000000081525060200191505060405180910390fd5b5050565b600080600360008573ffffffffffffffffffffffffffffffffffffffff1673ffffffffffffffffffffffffffffffffffffffff168152602001908152602001600020541461140e57600360008473ffffffffffffffffffffffffffffffffffffffff1673ffffffffffffffffffffffffffffffffffffffff168152602001908152602001600020546114086007548461164a90919063ffffffff16565b02611424565b6114236007548361164a90919063ffffffff16565b5b905092915050565b6000808284019050838110151515611487576040517f08c379a0000000000000000000000000000000000000000000000000000000008152600401808060200182810382526000815260200160200191505060405180910390fd5b8091505092915050565b61149b82826116cc565b5050565b600660009054906101000a900473ffffffffffffffffffffffffffffffffffffffff1673ffffffffffffffffffffffffffffffffffffffff166108fc349081150290604051600060405180830381858888f19350505050158015611507573d6000803e3d6000fd5b50565b600073ffffffffffffffffffffffffffffffffffffffff168173ffffffffffffffffffffffffffffffffffffffff161415151561158a576040517f08c379a0000000000000000000000000000000000000000000000000000000008152600401808060200182810382526000815260200160200191505060405180910390fd5b8073ffffffffffffffffffffffffffffffffffffffff16600160009054906101000a900473ffffffffffffffffffffffffffffffffffffffff1673ffffffffffffffffffffffffffffffffffffffff167f8be0079c531659141344cd1fd0a4f28419497f9722a3daafe3b4186f6b6457e060405160405180910390a380600160006101000a81548173ffffffffffffffffffffffffffffffffffffffff021916908373ffffffffffffffffffffffffffffffffffffffff16021790555050565b600080600084141561165f57600091506116c5565b828402905082848281151561167057fe5b041415156116c1576040517f08c379a0000000000000000000000000000000000000000000000000000000008152600401808060200182810382526000815260200160200191505060405180910390fd5b8091505b5092915050565b600560009054906101000a900473ffffffffffffffffffffffffffffffffffffffff1673ffffffffffffffffffffffffffffffffffffffff166323b872dd611712610bd1565b84846040518463ffffffff167c0100000000000000000000000000000000000000000000000000000000028152600401808473ffffffffffffffffffffffffffffffffffffffff1673ffffffffffffffffffffffffffffffffffffffff1681526020018373ffffffffffffffffffffffffffffffffffffffff1673ffffffffffffffffffffffffffffffffffffffff1681526020018281526020019350505050602060405180830381600087803b1580156117cc57600080fd5b505af11580156117e0573d6000803e3d6000fd5b505050506040513d60208110156117f657600080fd5b81019080805190602001909291905050505050505600a165627a7a7230582081aed4a40a8ba84e2f3da395541232f28785d7cb10f8c0beab2d21444ef4a71e0029",
  "source": "pragma solidity ^0.4.24;\n\nimport \"./Ownable.sol\";\nimport \"./ERC20.sol\";\nimport \"./ReentrancyGuard.sol\";\n\ncontract Crowdsale is ReentrancyGuard, Ownable {\n\n    using SafeMath for uint256;\n\n    event TokensPurchased(address indexed purchaser, address indexed beneficiary, uint value, uint amount);\n    event WhitelistedAdded(address indexed account);\n    event PrivilegedAdded(address indexed account, uint rate);\n    event PrivilegedRemoved(address indexed account);\n    event AirdropSuccessful(uint value);\n\n    mapping (address => bool) private _whitelist;\n    mapping (address => uint) private _privilegeRate;\n\n    address[] public investors;\n\n    ERC20 private _token;\n\n    address private _wallet;\n\n    // rate = 4\n    // decimals = 8\n    // 1 wei = 0.00000004 token\n    uint private _rate;\n    uint private _weiRaised;\n\n\n    constructor (uint rate, address wallet, ERC20 token) public {\n        require(rate > 0, \"rate is negative\");\n        require(wallet != address(0), \"wallet 0x0\");\n        require(address(token) != address(0), \"address 0x0\");\n\n        _rate = rate;\n        _wallet = wallet;\n        _token = token;\n    }\n\n    function () external payable {\n        buyTokens(msg.sender);\n    }\n\n    function token() public view returns (ERC20) {\n        return _token;\n    }\n\n    function rate() public view returns (uint) {\n        return _rate;\n    }\n\n    function weiRaised() public view returns (uint) {\n        return _weiRaised;\n    }\n\n    modifier isWhitelisted(address _address) {\n        require(_whitelist[_address], \"not in whitelist\");\n        _;\n    }\n\n    modifier isNotZeroAccount(address _address) {\n        require(_address != address(0), \"address 0x0\");\n        _;\n    }\n\n    function _addToWhiteList(address _address) public onlyOwner() isNotZeroAccount(_address) {\n        require(!_whitelist[_address], \"aldready in whitelist\");\n        _whitelist[_address] = true;\n        investors.push(_address);\n        emit WhitelistedAdded(_address);\n    }\n\n    function _addPrivilege(address _address, uint _privilegedRate) public onlyOwner() isWhitelisted(_address) isNotZeroAccount(_address) {\n        _privilegeRate[_address] = _privilegedRate;\n        emit PrivilegedAdded(_address, _privilegedRate);\n    }\n\n    function _removePrivilege(address _address) public onlyOwner() {\n        require(_privilegeRate[_address] != 0, \"not a privileged one\");\n        delete _privilegeRate[_address];\n        emit PrivilegedRemoved(_address);\n    }\n\n    function airdrop(uint _value) external onlyOwner() {\n        require(_token.balanceOf(owner()) >= _value * investors.length, \"airdrop fail, balance insufficient\");\n        for (uint8 i = 0; i < investors.length; i++) {\n            _token.transferFrom(owner(), investors[i], _value);\n        }\n        emit AirdropSuccessful(_value);\n    }\n\n    function buyTokens(address beneficiary) public nonReentrant payable {\n        uint weiAmount = msg.value;\n        _preValidatePurchase(beneficiary, weiAmount);\n        uint tokens = _getTokenAmount(beneficiary, weiAmount);\n        _weiRaised = _weiRaised.add(weiAmount);\n        _processPurchase(beneficiary, tokens);\n        emit TokensPurchased(msg.sender, beneficiary, weiAmount, tokens);\n        _forwardFunds();\n    }\n\n    function _preValidatePurchase(address beneficiary, uint weiAmount) internal pure {\n        require(beneficiary != address(0), \"address 0x0\");\n        require(weiAmount != 0, \"Wei amount = 0\");\n    }\n\n    function _deliverTokens(address beneficiary, uint tokenAmount) internal {\n        _token.transferFrom(owner(), beneficiary, tokenAmount);\n    }\n\n    function _processPurchase(address beneficiary, uint tokenAmount) internal {\n        _deliverTokens(beneficiary, tokenAmount);\n    }\n\n    function _getTokenAmount(address _address, uint weiAmount) internal view returns (uint) {\n        return (_privilegeRate[_address] == 0) ? weiAmount.mul(_rate) : (weiAmount.mul(_rate) * _privilegeRate[_address]);\n    }\n\n    function _forwardFunds() internal {\n        _wallet.transfer(msg.value);\n    }\n}\n",
  "sourcePath": "/home/haze/documents/esilv/blockchain-programming/td/contracts/Crowdsale.sol",
  "compiler": {
    "name": "solc",
    "version": "0.4.25+commit.59dbf8f1.Emscripten.clang"
  },
  "schemaVersion": "2.0.2",
  "updatedAt": "2019-03-10T14:41:03.218Z"
}